{
  "_format": "hh-sol-artifact-1",
  "contractName": "Minting",
  "sourceName": "src/contracts/minting.sol",
  "abi": [
    {
      "inputs": [
        {
          "internalType": "address",
          "name": "to",
          "type": "address"
        },
        {
          "internalType": "uint256",
          "name": "tokenId",
          "type": "uint256"
        }
      ],
      "name": "approve",
      "outputs": [],
      "stateMutability": "nonpayable",
      "type": "function"
    },
    {
      "inputs": [
        {
          "internalType": "string",
          "name": "_name",
          "type": "string"
        },
        {
          "internalType": "string",
          "name": "_symbol",
          "type": "string"
        },
        {
          "internalType": "string",
          "name": "_initBaseURI",
          "type": "string"
        }
      ],
      "stateMutability": "nonpayable",
      "type": "constructor"
    },
    {
      "inputs": [],
      "name": "ERC721EnumerableForbiddenBatchMint",
      "type": "error"
    },
    {
      "inputs": [
        {
          "internalType": "address",
          "name": "sender",
          "type": "address"
        },
        {
          "internalType": "uint256",
          "name": "tokenId",
          "type": "uint256"
        },
        {
          "internalType": "address",
          "name": "owner",
          "type": "address"
        }
      ],
      "name": "ERC721IncorrectOwner",
      "type": "error"
    },
    {
      "inputs": [
        {
          "internalType": "address",
          "name": "operator",
          "type": "address"
        },
        {
          "internalType": "uint256",
          "name": "tokenId",
          "type": "uint256"
        }
      ],
      "name": "ERC721InsufficientApproval",
      "type": "error"
    },
    {
      "inputs": [
        {
          "internalType": "address",
          "name": "approver",
          "type": "address"
        }
      ],
      "name": "ERC721InvalidApprover",
      "type": "error"
    },
    {
      "inputs": [
        {
          "internalType": "address",
          "name": "operator",
          "type": "address"
        }
      ],
      "name": "ERC721InvalidOperator",
      "type": "error"
    },
    {
      "inputs": [
        {
          "internalType": "address",
          "name": "owner",
          "type": "address"
        }
      ],
      "name": "ERC721InvalidOwner",
      "type": "error"
    },
    {
      "inputs": [
        {
          "internalType": "address",
          "name": "receiver",
          "type": "address"
        }
      ],
      "name": "ERC721InvalidReceiver",
      "type": "error"
    },
    {
      "inputs": [
        {
          "internalType": "address",
          "name": "sender",
          "type": "address"
        }
      ],
      "name": "ERC721InvalidSender",
      "type": "error"
    },
    {
      "inputs": [
        {
          "internalType": "uint256",
          "name": "tokenId",
          "type": "uint256"
        }
      ],
      "name": "ERC721NonexistentToken",
      "type": "error"
    },
    {
      "inputs": [
        {
          "internalType": "address",
          "name": "owner",
          "type": "address"
        },
        {
          "internalType": "uint256",
          "name": "index",
          "type": "uint256"
        }
      ],
      "name": "ERC721OutOfBoundsIndex",
      "type": "error"
    },
    {
      "inputs": [
        {
          "internalType": "address",
          "name": "owner",
          "type": "address"
        }
      ],
      "name": "OwnableInvalidOwner",
      "type": "error"
    },
    {
      "inputs": [
        {
          "internalType": "address",
          "name": "account",
          "type": "address"
        }
      ],
      "name": "OwnableUnauthorizedAccount",
      "type": "error"
    },
    {
      "anonymous": false,
      "inputs": [
        {
          "indexed": true,
          "internalType": "address",
          "name": "owner",
          "type": "address"
        },
        {
          "indexed": true,
          "internalType": "address",
          "name": "approved",
          "type": "address"
        },
        {
          "indexed": true,
          "internalType": "uint256",
          "name": "tokenId",
          "type": "uint256"
        }
      ],
      "name": "Approval",
      "type": "event"
    },
    {
      "anonymous": false,
      "inputs": [
        {
          "indexed": true,
          "internalType": "address",
          "name": "owner",
          "type": "address"
        },
        {
          "indexed": true,
          "internalType": "address",
          "name": "operator",
          "type": "address"
        },
        {
          "indexed": false,
          "internalType": "bool",
          "name": "approved",
          "type": "bool"
        }
      ],
      "name": "ApprovalForAll",
      "type": "event"
    },
    {
      "anonymous": false,
      "inputs": [
        {
          "indexed": true,
          "internalType": "address",
          "name": "previousOwner",
          "type": "address"
        },
        {
          "indexed": true,
          "internalType": "address",
          "name": "newOwner",
          "type": "address"
        }
      ],
      "name": "OwnershipTransferred",
      "type": "event"
    },
    {
      "inputs": [
        {
          "internalType": "address",
          "name": "to",
          "type": "address"
        },
        {
          "internalType": "uint256",
          "name": "amount",
          "type": "uint256"
        }
      ],
      "name": "payTo",
      "outputs": [],
      "stateMutability": "nonpayable",
      "type": "function"
    },
    {
      "inputs": [],
      "name": "payToMint",
      "outputs": [],
      "stateMutability": "payable",
      "type": "function"
    },
    {
      "inputs": [],
      "name": "renounceOwnership",
      "outputs": [],
      "stateMutability": "nonpayable",
      "type": "function"
    },
    {
      "inputs": [
        {
          "internalType": "address",
          "name": "from",
          "type": "address"
        },
        {
          "internalType": "address",
          "name": "to",
          "type": "address"
        },
        {
          "internalType": "uint256",
          "name": "tokenId",
          "type": "uint256"
        }
      ],
      "name": "safeTransferFrom",
      "outputs": [],
      "stateMutability": "nonpayable",
      "type": "function"
    },
    {
      "inputs": [
        {
          "internalType": "address",
          "name": "from",
          "type": "address"
        },
        {
          "internalType": "address",
          "name": "to",
          "type": "address"
        },
        {
          "internalType": "uint256",
          "name": "tokenId",
          "type": "uint256"
        },
        {
          "internalType": "bytes",
          "name": "data",
          "type": "bytes"
        }
      ],
      "name": "safeTransferFrom",
      "outputs": [],
      "stateMutability": "nonpayable",
      "type": "function"
    },
    {
      "anonymous": false,
      "inputs": [
        {
          "indexed": false,
          "internalType": "uint256",
          "name": "id",
          "type": "uint256"
        },
        {
          "indexed": true,
          "internalType": "address",
          "name": "buyer",
          "type": "address"
        },
        {
          "indexed": false,
          "internalType": "uint256",
          "name": "cost",
          "type": "uint256"
        },
        {
          "indexed": true,
          "internalType": "string",
          "name": "tokenURI",
          "type": "string"
        },
        {
          "indexed": false,
          "internalType": "uint256",
          "name": "timestamp",
          "type": "uint256"
        }
      ],
      "name": "Sale",
      "type": "event"
    },
    {
      "inputs": [
        {
          "internalType": "address",
          "name": "operator",
          "type": "address"
        },
        {
          "internalType": "bool",
          "name": "approved",
          "type": "bool"
        }
      ],
      "name": "setApprovalForAll",
      "outputs": [],
      "stateMutability": "nonpayable",
      "type": "function"
    },
    {
      "inputs": [
        {
          "internalType": "string",
          "name": "_newBaseURI",
          "type": "string"
        }
      ],
      "name": "setBaseURI",
      "outputs": [],
      "stateMutability": "nonpayable",
      "type": "function"
    },
    {
      "inputs": [
        {
          "internalType": "bool",
          "name": "_state",
          "type": "bool"
        }
      ],
      "name": "setPause",
      "outputs": [],
      "stateMutability": "nonpayable",
      "type": "function"
    },
    {
      "anonymous": false,
      "inputs": [
        {
          "indexed": true,
          "internalType": "address",
          "name": "from",
          "type": "address"
        },
        {
          "indexed": true,
          "internalType": "address",
          "name": "to",
          "type": "address"
        },
        {
          "indexed": true,
          "internalType": "uint256",
          "name": "tokenId",
          "type": "uint256"
        }
      ],
      "name": "Transfer",
      "type": "event"
    },
    {
      "inputs": [
        {
          "internalType": "address",
          "name": "from",
          "type": "address"
        },
        {
          "internalType": "address",
          "name": "to",
          "type": "address"
        },
        {
          "internalType": "uint256",
          "name": "tokenId",
          "type": "uint256"
        }
      ],
      "name": "transferFrom",
      "outputs": [],
      "stateMutability": "nonpayable",
      "type": "function"
    },
    {
      "inputs": [
        {
          "internalType": "address",
          "name": "newOwner",
          "type": "address"
        }
      ],
      "name": "transferOwnership",
      "outputs": [],
      "stateMutability": "nonpayable",
      "type": "function"
    },
    {
      "inputs": [
        {
          "internalType": "address",
          "name": "owner",
          "type": "address"
        }
      ],
      "name": "balanceOf",
      "outputs": [
        {
          "internalType": "uint256",
          "name": "",
          "type": "uint256"
        }
      ],
      "stateMutability": "view",
      "type": "function"
    },
    {
      "inputs": [],
      "name": "baseExtension",
      "outputs": [
        {
          "internalType": "string",
          "name": "",
          "type": "string"
        }
      ],
      "stateMutability": "view",
      "type": "function"
    },
    {
      "inputs": [],
      "name": "baseImage",
      "outputs": [
        {
          "internalType": "string",
          "name": "",
          "type": "string"
        }
      ],
      "stateMutability": "view",
      "type": "function"
    },
    {
      "inputs": [],
      "name": "baseURI",
      "outputs": [
        {
          "internalType": "string",
          "name": "",
          "type": "string"
        }
      ],
      "stateMutability": "view",
      "type": "function"
    },
    {
      "inputs": [],
      "name": "cost",
      "outputs": [
        {
          "internalType": "uint256",
          "name": "",
          "type": "uint256"
        }
      ],
      "stateMutability": "view",
      "type": "function"
    },
    {
      "inputs": [],
      "name": "getAllNFTs",
      "outputs": [
        {
          "components": [
            {
              "internalType": "uint256",
              "name": "id",
              "type": "uint256"
            },
            {
              "internalType": "address",
              "name": "buyer",
              "type": "address"
            },
            {
              "internalType": "uint256",
              "name": "cost",
              "type": "uint256"
            },
            {
              "internalType": "string",
              "name": "imageURL",
              "type": "string"
            },
            {
              "internalType": "uint256",
              "name": "timestamp",
              "type": "uint256"
            }
          ],
          "internalType": "struct Minting.SaleStruct[]",
          "name": "",
          "type": "tuple[]"
        }
      ],
      "stateMutability": "view",
      "type": "function"
    },
    {
      "inputs": [
        {
          "internalType": "uint256",
          "name": "tokenId",
          "type": "uint256"
        }
      ],
      "name": "getAnNFTs",
      "outputs": [
        {
          "components": [
            {
              "internalType": "uint256",
              "name": "id",
              "type": "uint256"
            },
            {
              "internalType": "address",
              "name": "buyer",
              "type": "address"
            },
            {
              "internalType": "uint256",
              "name": "cost",
              "type": "uint256"
            },
            {
              "internalType": "string",
              "name": "imageURL",
              "type": "string"
            },
            {
              "internalType": "uint256",
              "name": "timestamp",
              "type": "uint256"
            }
          ],
          "internalType": "struct Minting.SaleStruct",
          "name": "",
          "type": "tuple"
        }
      ],
      "stateMutability": "view",
      "type": "function"
    },
    {
      "inputs": [
        {
          "internalType": "uint256",
          "name": "tokenId",
          "type": "uint256"
        }
      ],
      "name": "getApproved",
      "outputs": [
        {
          "internalType": "address",
          "name": "",
          "type": "address"
        }
      ],
      "stateMutability": "view",
      "type": "function"
    },
    {
      "inputs": [
        {
          "internalType": "address",
          "name": "owner",
          "type": "address"
        },
        {
          "internalType": "address",
          "name": "operator",
          "type": "address"
        }
      ],
      "name": "isApprovedForAll",
      "outputs": [
        {
          "internalType": "bool",
          "name": "",
          "type": "bool"
        }
      ],
      "stateMutability": "view",
      "type": "function"
    },
    {
      "inputs": [],
      "name": "maxSupply",
      "outputs": [
        {
          "internalType": "uint256",
          "name": "",
          "type": "uint256"
        }
      ],
      "stateMutability": "view",
      "type": "function"
    },
    {
      "inputs": [],
      "name": "name",
      "outputs": [
        {
          "internalType": "string",
          "name": "",
          "type": "string"
        }
      ],
      "stateMutability": "view",
      "type": "function"
    },
    {
      "inputs": [],
      "name": "owner",
      "outputs": [
        {
          "internalType": "address",
          "name": "",
          "type": "address"
        }
      ],
      "stateMutability": "view",
      "type": "function"
    },
    {
      "inputs": [
        {
          "internalType": "uint256",
          "name": "tokenId",
          "type": "uint256"
        }
      ],
      "name": "ownerOf",
      "outputs": [
        {
          "internalType": "address",
          "name": "",
          "type": "address"
        }
      ],
      "stateMutability": "view",
      "type": "function"
    },
    {
      "inputs": [],
      "name": "paused",
      "outputs": [
        {
          "internalType": "bool",
          "name": "",
          "type": "bool"
        }
      ],
      "stateMutability": "view",
      "type": "function"
    },
    {
      "inputs": [
        {
          "internalType": "bytes4",
          "name": "interfaceId",
          "type": "bytes4"
        }
      ],
      "name": "supportsInterface",
      "outputs": [
        {
          "internalType": "bool",
          "name": "",
          "type": "bool"
        }
      ],
      "stateMutability": "view",
      "type": "function"
    },
    {
      "inputs": [],
      "name": "symbol",
      "outputs": [
        {
          "internalType": "string",
          "name": "",
          "type": "string"
        }
      ],
      "stateMutability": "view",
      "type": "function"
    },
    {
      "inputs": [
        {
          "internalType": "uint256",
          "name": "tokenId",
          "type": "uint256"
        },
        {
          "internalType": "string",
          "name": "extension",
          "type": "string"
        }
      ],
      "name": "toImage",
      "outputs": [
        {
          "internalType": "string",
          "name": "",
          "type": "string"
        }
      ],
      "stateMutability": "view",
      "type": "function"
    },
    {
      "inputs": [
        {
          "internalType": "uint256",
          "name": "index",
          "type": "uint256"
        }
      ],
      "name": "tokenByIndex",
      "outputs": [
        {
          "internalType": "uint256",
          "name": "",
          "type": "uint256"
        }
      ],
      "stateMutability": "view",
      "type": "function"
    },
    {
      "inputs": [
        {
          "internalType": "address",
          "name": "owner",
          "type": "address"
        },
        {
          "internalType": "uint256",
          "name": "index",
          "type": "uint256"
        }
      ],
      "name": "tokenOfOwnerByIndex",
      "outputs": [
        {
          "internalType": "uint256",
          "name": "",
          "type": "uint256"
        }
      ],
      "stateMutability": "view",
      "type": "function"
    },
    {
      "inputs": [
        {
          "internalType": "uint256",
          "name": "tokenId",
          "type": "uint256"
        }
      ],
      "name": "tokenURI",
      "outputs": [
        {
          "internalType": "string",
          "name": "",
          "type": "string"
        }
      ],
      "stateMutability": "view",
      "type": "function"
    },
    {
      "inputs": [],
      "name": "totalSupply",
      "outputs": [
        {
          "internalType": "uint256",
          "name": "",
          "type": "uint256"
        }
      ],
      "stateMutability": "view",
      "type": "function"
    }
  ],
  "bytecode": "0x66038d7ea4c68000600c5560c06040526005608090815264173539b7b760d91b60a052600d9062000031908262000254565b506063600e55600f805460ff1916905560408051808201909152600581526402e776562760dc1b60208201526010906200006c908262000254565b503480156200007a57600080fd5b50604051620026a7380380620026a78339810160408190526200009d91620003cf565b3383836000620000ae838262000254565b506001620000bd828262000254565b5050506001600160a01b038116620000f057604051631e4fbdf760e01b8152600060048201526024015b60405180910390fd5b620000fb8162000110565b50620001078162000162565b50505062000460565b600a80546001600160a01b038381166001600160a01b0319831681179093556040519116919082907f8be0079c531659141344cd1fd0a4f28419497f9722a3daafe3b4186f6b6457e090600090a35050565b6200016c6200017e565b600b6200017a828262000254565b5050565b600a546001600160a01b03163314620001ad5760405163118cdaa760e01b8152336004820152602401620000e7565b565b634e487b7160e01b600052604160045260246000fd5b600181811c90821680620001da57607f821691505b602082108103620001fb57634e487b7160e01b600052602260045260246000fd5b50919050565b601f8211156200024f57600081815260208120601f850160051c810160208610156200022a5750805b601f850160051c820191505b818110156200024b5782815560010162000236565b5050505b505050565b81516001600160401b03811115620002705762000270620001af565b6200028881620002818454620001c5565b8462000201565b602080601f831160018114620002c05760008415620002a75750858301515b600019600386901b1c1916600185901b1785556200024b565b600085815260208120601f198616915b82811015620002f157888601518255948401946001909101908401620002d0565b5085821015620003105787850151600019600388901b60f8161c191681555b5050505050600190811b01905550565b600082601f8301126200033257600080fd5b81516001600160401b03808211156200034f576200034f620001af565b604051601f8301601f19908116603f011681019082821181831017156200037a576200037a620001af565b816040528381526020925086838588010111156200039757600080fd5b600091505b83821015620003bb57858201830151818301840152908201906200039c565b600093810190920192909252949350505050565b600080600060608486031215620003e557600080fd5b83516001600160401b0380821115620003fd57600080fd5b6200040b8783880162000320565b945060208601519150808211156200042257600080fd5b620004308783880162000320565b935060408601519150808211156200044757600080fd5b50620004568682870162000320565b9150509250925092565b61223780620004706000396000f3fe6080604052600436106101e35760003560e01c80636c0360eb11610102578063b88d4fde11610095578063d5abeb0111610064578063d5abeb0114610548578063e0391b091461055e578063e985e9c514610580578063f2fde38b146105a057600080fd5b8063b88d4fde146104d3578063bedb86fb146104f3578063c668286214610513578063c87b56dd1461052857600080fd5b80638da5cb5b116100d15780638da5cb5b1461046057806395d89b411461047e578063a22cb46514610493578063a9ebac59146104b357600080fd5b80636c0360eb146103f657806370a082311461040b578063715018a61461042b5780637bf086211461044057600080fd5b80632f745c591161017a57806355f804b31161014957806355f804b31461036f5780635c975abb1461038f5780636352211e146103a957806368ef9d3c146103c957600080fd5b80632f745c591461030757806342842e0e146103275780634f6ccce714610347578063509c71801461036757600080fd5b8063095ea7b3116101b6578063095ea7b31461028c57806313faede6146102ae57806318160ddd146102d257806323b872dd146102e757600080fd5b806301ffc9a7146101e857806303b0f38d1461021d57806306fdde031461023f578063081812fc14610254575b600080fd5b3480156101f457600080fd5b50610208610203366004611ad2565b6105c0565b60405190151581526020015b60405180910390f35b34801561022957600080fd5b506102326105eb565b6040516102149190611b3f565b34801561024b57600080fd5b50610232610679565b34801561026057600080fd5b5061027461026f366004611b52565b61070b565b6040516001600160a01b039091168152602001610214565b34801561029857600080fd5b506102ac6102a7366004611b87565b610734565b005b3480156102ba57600080fd5b506102c4600c5481565b604051908152602001610214565b3480156102de57600080fd5b506008546102c4565b3480156102f357600080fd5b506102ac610302366004611bb1565b610743565b34801561031357600080fd5b506102c4610322366004611b87565b6107d3565b34801561033357600080fd5b506102ac610342366004611bb1565b610838565b34801561035357600080fd5b506102c4610362366004611b52565b610858565b6102ac6108b1565b34801561037b57600080fd5b506102ac61038a366004611c99565b610b41565b34801561039b57600080fd5b50600f546102089060ff1681565b3480156103b557600080fd5b506102746103c4366004611b52565b610b55565b3480156103d557600080fd5b506103e96103e4366004611b52565b610b60565b6040516102149190611d1d565b34801561040257600080fd5b50610232610cb7565b34801561041757600080fd5b506102c4610426366004611d30565b610cc4565b34801561043757600080fd5b506102ac610d0c565b34801561044c57600080fd5b506102ac61045b366004611b87565b610d20565b34801561046c57600080fd5b50600a546001600160a01b0316610274565b34801561048a57600080fd5b50610232610d88565b34801561049f57600080fd5b506102ac6104ae366004611d5b565b610d97565b3480156104bf57600080fd5b506102326104ce366004611d8e565b610da2565b3480156104df57600080fd5b506102ac6104ee366004611dd5565b610e03565b3480156104ff57600080fd5b506102ac61050e366004611e51565b610e1a565b34801561051f57600080fd5b50610232610e35565b34801561053457600080fd5b50610232610543366004611b52565b610e42565b34801561055457600080fd5b506102c4600e5481565b34801561056a57600080fd5b50610573610f1a565b6040516102149190611e6c565b34801561058c57600080fd5b5061020861059b366004611ece565b611040565b3480156105ac57600080fd5b506102ac6105bb366004611d30565b61106e565b60006001600160e01b0319821663780e9d6360e01b14806105e557506105e5826110ac565b92915050565b601080546105f890611ef8565b80601f016020809104026020016040519081016040528092919081815260200182805461062490611ef8565b80156106715780601f1061064657610100808354040283529160200191610671565b820191906000526020600020905b81548152906001019060200180831161065457829003601f168201915b505050505081565b60606000805461068890611ef8565b80601f01602080910402602001604051908101604052809291908181526020018280546106b490611ef8565b80156107015780601f106106d657610100808354040283529160200191610701565b820191906000526020600020905b8154815290600101906020018083116106e457829003601f168201915b5050505050905090565b6000610716826110fc565b506000828152600460205260409020546001600160a01b03166105e5565b61073f828233611135565b5050565b6001600160a01b03821661077257604051633250574960e11b8152600060048201526024015b60405180910390fd5b600061077f838333611142565b9050836001600160a01b0316816001600160a01b0316146107cd576040516364283d7b60e01b81526001600160a01b0380861660048301526024820184905282166044820152606401610769565b50505050565b60006107de83610cc4565b821061080f5760405163295f44f760e21b81526001600160a01b038416600482015260248101839052604401610769565b506001600160a01b03919091166000908152600660209081526040808320938352929052205490565b61085383838360405180602001604052806000815250610e03565b505050565b600061086360085490565b821061088c5760405163295f44f760e21b81526000600482015260248101839052604401610769565b6008828154811061089f5761089f611f32565b90600052602060002001549050919050565b60006108bc60085490565b600f5490915060ff16156109125760405162461bcd60e51b815260206004820152601760248201527f4e46547320756e646572206d61696e74656e616e6365210000000000000000006044820152606401610769565b600e5481111561096e5760405162461bcd60e51b815260206004820152602160248201527f536f7272792c20616c6c204e4654732068617665206265656e206d696e7465646044820152602160f81b6064820152608401610769565b600034116109be5760405162461bcd60e51b815260206004820152601a60248201527f457468657220746f6f206c6f7720666f72206d696e74696e67210000000000006044820152606401610769565b600a546001600160a01b031633146109df57600c543410156109df57600080fd5b6109f3336109ee836001611f5e565b61120f565b600160116000610a038484611f5e565b815260200190815260200160002060006101000a81548160ff02191690831515021790555060126040518060a00160405280836001610a429190611f5e565b8152336020820152346040820152606001610a61610543856001611f5e565b81524260209182015282546001808201855560009485529382902083516005909202019081559082015192810180546001600160a01b0319166001600160a01b03909416939093179092556040810151600283015560608101519091906003820190610acd9082611fbf565b5060809190910151600490910155610ae9610543826001611f5e565b604051610af6919061207f565b6040805191829003822083835234602084015242838301529051909133917fb9508407a6eccb191d8da3286f4173697cf95604e9ea192fe5ab7c862b5221f69181900360600190a350565b610b49611229565b600b61073f8282611fbf565b60006105e5826110fc565b610b9b6040518060a001604052806000815260200160006001600160a01b031681526020016000815260200160608152602001600081525090565b6012610ba860018461209b565b81548110610bb857610bb8611f32565b90600052602060002090600502016040518060a0016040529081600082015481526020016001820160009054906101000a90046001600160a01b03166001600160a01b03166001600160a01b0316815260200160028201548152602001600382018054610c2490611ef8565b80601f0160208091040260200160405190810160405280929190818152602001828054610c5090611ef8565b8015610c9d5780601f10610c7257610100808354040283529160200191610c9d565b820191906000526020600020905b815481529060010190602001808311610c8057829003601f168201915b505050505081526020016004820154815250509050919050565b600b80546105f890611ef8565b60006001600160a01b038216610cf0576040516322718ad960e21b815260006004820152602401610769565b506001600160a01b031660009081526003602052604090205490565b610d14611229565b610d1e6000611256565b565b610d28611229565b6000826001600160a01b03168260405160006040518083038185875af1925050503d8060008114610d75576040519150601f19603f3d011682016040523d82523d6000602084013e610d7a565b606091505b505090508061085357600080fd5b60606001805461068890611ef8565b61073f3383836112a8565b60606000610dae611347565b90506000815111610dce5760405180602001604052806000815250610dfb565b80610dd885611356565b84604051602001610deb939291906120ae565b6040516020818303038152906040525b949350505050565b610e0e848484610743565b6107cd848484846113e9565b610e22611229565b600f805460ff1916911515919091179055565b600d80546105f890611ef8565b60008181526011602052604090205460609060ff16610ebb5760405162461bcd60e51b815260206004820152602f60248201527f4552433732314d657461646174613a2055524920717565727920666f72206e6f60448201526e3732bc34b9ba32b73a103a37b5b2b760891b6064820152608401610769565b6000610ec5611347565b90506000815111610ee55760405180602001604052806000815250610f13565b80610eef84611356565b600d604051602001610f03939291906120f1565b6040516020818303038152906040525b9392505050565b60606012805480602002602001604051908101604052809291908181526020016000905b828210156110375760008481526020908190206040805160a081018252600586029092018054835260018101546001600160a01b031693830193909352600283015490820152600382018054919291606084019190610f9c90611ef8565b80601f0160208091040260200160405190810160405280929190818152602001828054610fc890611ef8565b80156110155780601f10610fea57610100808354040283529160200191611015565b820191906000526020600020905b815481529060010190602001808311610ff857829003601f168201915b5050505050815260200160048201548152505081526020019060010190610f3e565b50505050905090565b6001600160a01b03918216600090815260056020908152604080832093909416825291909152205460ff1690565b611076611229565b6001600160a01b0381166110a057604051631e4fbdf760e01b815260006004820152602401610769565b6110a981611256565b50565b60006001600160e01b031982166380ac58cd60e01b14806110dd57506001600160e01b03198216635b5e139f60e01b145b806105e557506301ffc9a760e01b6001600160e01b03198316146105e5565b6000818152600260205260408120546001600160a01b0316806105e557604051637e27328960e01b815260048101849052602401610769565b6108538383836001611512565b600080611150858585611618565b90506001600160a01b0381166111ad576111a884600880546000838152600960205260408120829055600182018355919091527ff3f7a9fe364faab93b216da50a3214154f22a0a2b415b23a84c8169e8b636ee30155565b6111d0565b846001600160a01b0316816001600160a01b0316146111d0576111d08185611711565b6001600160a01b0385166111ec576111e7846117a2565b610dfb565b846001600160a01b0316816001600160a01b031614610dfb57610dfb8585611851565b61073f8282604051806020016040528060008152506118a1565b600a546001600160a01b03163314610d1e5760405163118cdaa760e01b8152336004820152602401610769565b600a80546001600160a01b038381166001600160a01b0319831681179093556040519116919082907f8be0079c531659141344cd1fd0a4f28419497f9722a3daafe3b4186f6b6457e090600090a35050565b6001600160a01b0382166112da57604051630b61174360e31b81526001600160a01b0383166004820152602401610769565b6001600160a01b03838116600081815260056020908152604080832094871680845294825291829020805460ff191686151590811790915591519182527f17307eab39ab6107e8899845ad3d59bd9653f200f220920489ca2b5937696c31910160405180910390a3505050565b6060600b805461068890611ef8565b60606000611363836118b8565b600101905060008167ffffffffffffffff81111561138357611383611bed565b6040519080825280601f01601f1916602001820160405280156113ad576020820181803683370190505b5090508181016020015b600019016f181899199a1a9b1b9c1cb0b131b232b360811b600a86061a8153600a85049450846113b757509392505050565b6001600160a01b0383163b156107cd57604051630a85bd0160e11b81526001600160a01b0384169063150b7a029061142b903390889087908790600401612191565b6020604051808303816000875af1925050508015611466575060408051601f3d908101601f19168201909252611463918101906121ce565b60015b6114cf573d808015611494576040519150601f19603f3d011682016040523d82523d6000602084013e611499565b606091505b5080516000036114c757604051633250574960e11b81526001600160a01b0385166004820152602401610769565b805181602001fd5b6001600160e01b03198116630a85bd0160e11b1461150b57604051633250574960e11b81526001600160a01b0385166004820152602401610769565b5050505050565b808061152657506001600160a01b03821615155b156115e8576000611536846110fc565b90506001600160a01b038316158015906115625750826001600160a01b0316816001600160a01b031614155b801561157557506115738184611040565b155b1561159e5760405163a9fbf51f60e01b81526001600160a01b0384166004820152602401610769565b81156115e65783856001600160a01b0316826001600160a01b03167f8c5be1e5ebec7d5bd14f71427d1e84f3dd0314c0f7b2291e5b200ac8c7c3b92560405160405180910390a45b505b5050600090815260046020526040902080546001600160a01b0319166001600160a01b0392909216919091179055565b6000828152600260205260408120546001600160a01b039081169083161561164557611645818486611990565b6001600160a01b0381161561168357611662600085600080611512565b6001600160a01b038116600090815260036020526040902080546000190190555b6001600160a01b038516156116b2576001600160a01b0385166000908152600360205260409020805460010190555b60008481526002602052604080822080546001600160a01b0319166001600160a01b0389811691821790925591518793918516917fddf252ad1be2c89b69c2b068fc378daa952ba7f163c4a11628f55a4df523b3ef91a4949350505050565b600061171c83610cc4565b60008381526007602052604090205490915080821461176f576001600160a01b03841660009081526006602090815260408083208584528252808320548484528184208190558352600790915290208190555b5060009182526007602090815260408084208490556001600160a01b039094168352600681528383209183525290812055565b6008546000906117b49060019061209b565b600083815260096020526040812054600880549394509092849081106117dc576117dc611f32565b9060005260206000200154905080600883815481106117fd576117fd611f32565b6000918252602080832090910192909255828152600990915260408082208490558582528120556008805480611835576118356121eb565b6001900381819060005260206000200160009055905550505050565b6000600161185e84610cc4565b611868919061209b565b6001600160a01b039093166000908152600660209081526040808320868452825280832085905593825260079052919091209190915550565b6118ab83836119f4565b61085360008484846113e9565b60008072184f03e93ff9f4daa797ed6e38ed64bf6a1f0160401b83106118f75772184f03e93ff9f4daa797ed6e38ed64bf6a1f0160401b830492506040015b6d04ee2d6d415b85acef81000000008310611923576d04ee2d6d415b85acef8100000000830492506020015b662386f26fc10000831061194157662386f26fc10000830492506010015b6305f5e1008310611959576305f5e100830492506008015b612710831061196d57612710830492506004015b6064831061197f576064830492506002015b600a83106105e55760010192915050565b61199b838383611a59565b610853576001600160a01b0383166119c957604051637e27328960e01b815260048101829052602401610769565b60405163177e802f60e01b81526001600160a01b038316600482015260248101829052604401610769565b6001600160a01b038216611a1e57604051633250574960e11b815260006004820152602401610769565b6000611a2c83836000611142565b90506001600160a01b03811615610853576040516339e3563760e11b815260006004820152602401610769565b60006001600160a01b03831615801590610dfb5750826001600160a01b0316846001600160a01b03161480611a935750611a938484611040565b80610dfb5750506000908152600460205260409020546001600160a01b03908116911614919050565b6001600160e01b0319811681146110a957600080fd5b600060208284031215611ae457600080fd5b8135610f1381611abc565b60005b83811015611b0a578181015183820152602001611af2565b50506000910152565b60008151808452611b2b816020860160208601611aef565b601f01601f19169290920160200192915050565b602081526000610f136020830184611b13565b600060208284031215611b6457600080fd5b5035919050565b80356001600160a01b0381168114611b8257600080fd5b919050565b60008060408385031215611b9a57600080fd5b611ba383611b6b565b946020939093013593505050565b600080600060608486031215611bc657600080fd5b611bcf84611b6b565b9250611bdd60208501611b6b565b9150604084013590509250925092565b634e487b7160e01b600052604160045260246000fd5b600067ffffffffffffffff80841115611c1e57611c1e611bed565b604051601f8501601f19908116603f01168101908282118183101715611c4657611c46611bed565b81604052809350858152868686011115611c5f57600080fd5b858560208301376000602087830101525050509392505050565b600082601f830112611c8a57600080fd5b610f1383833560208501611c03565b600060208284031215611cab57600080fd5b813567ffffffffffffffff811115611cc257600080fd5b610dfb84828501611c79565b8051825260018060a01b036020820151166020830152604081015160408301526000606082015160a06060850152611d0960a0850182611b13565b608093840151949093019390935250919050565b602081526000610f136020830184611cce565b600060208284031215611d4257600080fd5b610f1382611b6b565b80358015158114611b8257600080fd5b60008060408385031215611d6e57600080fd5b611d7783611b6b565b9150611d8560208401611d4b565b90509250929050565b60008060408385031215611da157600080fd5b82359150602083013567ffffffffffffffff811115611dbf57600080fd5b611dcb85828601611c79565b9150509250929050565b60008060008060808587031215611deb57600080fd5b611df485611b6b565b9350611e0260208601611b6b565b925060408501359150606085013567ffffffffffffffff811115611e2557600080fd5b8501601f81018713611e3657600080fd5b611e4587823560208401611c03565b91505092959194509250565b600060208284031215611e6357600080fd5b610f1382611d4b565b6000602080830181845280855180835260408601915060408160051b870101925083870160005b82811015611ec157603f19888603018452611eaf858351611cce565b94509285019290850190600101611e93565b5092979650505050505050565b60008060408385031215611ee157600080fd5b611eea83611b6b565b9150611d8560208401611b6b565b600181811c90821680611f0c57607f821691505b602082108103611f2c57634e487b7160e01b600052602260045260246000fd5b50919050565b634e487b7160e01b600052603260045260246000fd5b634e487b7160e01b600052601160045260246000fd5b808201808211156105e5576105e5611f48565b601f82111561085357600081815260208120601f850160051c81016020861015611f985750805b601f850160051c820191505b81811015611fb757828155600101611fa4565b505050505050565b815167ffffffffffffffff811115611fd957611fd9611bed565b611fed81611fe78454611ef8565b84611f71565b602080601f831160018114612022576000841561200a5750858301515b600019600386901b1c1916600185901b178555611fb7565b600085815260208120601f198616915b8281101561205157888601518255948401946001909101908401612032565b508582101561206f5787850151600019600388901b60f8161c191681555b5050505050600190811b01905550565b60008251612091818460208701611aef565b9190910192915050565b818103818111156105e5576105e5611f48565b600084516120c0818460208901611aef565b8451908301906120d4818360208901611aef565b84519101906120e7818360208801611aef565b0195945050505050565b6000845160206121048285838a01611aef565b8551918401916121178184848a01611aef565b855492019160009061212881611ef8565b60018281168015612140576001811461215557612181565b60ff1984168752821515830287019450612181565b896000528560002060005b8481101561217957815489820152908301908701612160565b505082870194505b50929a9950505050505050505050565b6001600160a01b03858116825284166020820152604081018390526080606082018190526000906121c490830184611b13565b9695505050505050565b6000602082840312156121e057600080fd5b8151610f1381611abc565b634e487b7160e01b600052603160045260246000fdfea2646970667358221220836dbc0505dc79b8bf697bbe128c758b6171aed840f9d902753310776f0f1b7a64736f6c63430008140033",
  "linkReferences": {},
  "deployedLinkReferences": {}
}